:100000000C9434000C9451000C9451000C94510049
:100010000C9451000C9451000C9451000C9451001C
:100020000C9451000C9451000C9451000C947E0FD0
:100030000C9451000C9451000C9451000C945100FC
:100040000C9451000C9451000C9451000C945100EC
:100050000C9451000C9451000C9451000C945100DC
:100060000C9451000C94510011241FBECFEFD8E026
:10007000DEBFCDBF11E0A0E0B1E0EAE4F0E202C0F3
:1000800005900D92A633B107D9F717E0A6E3B1E0CA
:1000900001C01D92AF3AB107E1F70E94A80F0C947E
:1000A00023100C9400000E94810F8EE091E0909349
:1000B000AC078093AB0780E091E09093AA07809310
:1000C000A9078EE191E00E94F40F88EE93E00E9470
:1000D000B603F7CF259AC0E285B18C2785B984EFA6
:1000E00091E00E94B603F8CF0895E0914401F091A9
:1000F00045018081811103C08FEF9FEF0CC0E0911B
:100100004401F09145010580F681E02D0680F781DC
:10011000E02D8281938190931D0180931C010895AD
:10012000CF93DF93EC01E0913601F0913701938397
:10013000828380913E0190913F01609136017091E0
:100140003701C817D90750F48091420190914301BB
:100150006E5F7F4FDF91CF910C949C0B8091440197
:10016000909145016E5F7F4F0E949C0B80911C0116
:1001700090911D01C817D90720F4D0931D01C09399
:100180001C01DF91CF9108955F926F927F928F92C1
:100190009F92AF92BF92CF92DF92EF92FF920F9316
:1001A0001F93CF93DF934C01162F572E5A0139011D
:1001B000C114D10439F4CA010E94B30D6C01009737
:1001C00009F4D0C086E290E00E94B30DEC010097E4
:1001D00061F0D88ECF8A21E0A21AB108AC0CBD1C08
:1001E000E12FF52D80E090E004C0C6010E94E50DEE
:1001F000B9C0BF0141919E01280F391FD9015996FD
:100200004C93DB012C91222321F00196883091053B
:1002100081F718A2102F043008F013E01E8B6E0136
:10022000B2E0CB0ED11CC6010E94770BCE010C961A
:100230000E94770BD987C88784E090E0811B9109E1
:100240009D878C87DB8BCA8B19A21AA21BA21CA2CA
:100250001DA2A301B401C5010E94F50D99838883F5
:10026000E114F10419F0F701D183C0830FB6F894BB
:100270000F92809140018F5F809340018091360101
:1002800090913701892BC9F5D0933701C09336017E
:1002900080914001813009F03FC0E12CF12C19E040
:1002A0001E9DC0011F9D900D1124895B9E4F0E94D1
:1002B000690BFFEFEF1AFF0A24E0E216F10481F761
:1002C0008BE691E00E94690B84E791E00E94690B44
:1002D0008DE791E00E94690B86E891E00E94690B2E
:1002E0008BE691E0909345018093440184E791E08F
:1002F00090934301809342010FC080913C01811192
:100300000BC0E0913601F09137018689081720F083
:10031000D0933701C0933601809146018F5F80935F
:1003200046018E8990913D01981710F480933D010C
:10033000A9E08A9FC0011124B601895B9E4F0E94EB
:100340007B0B0F900FBE80913C01882349F0E09118
:100350003601F09137018689801710F40E94C90E8A
:1003600081E001C08FEFDF91CF911F910F91FF903E
:10037000EF90DF90CF90BF90AF909F908F907F9045
:100380006F905F9008950F931F93CF93DF930FB6F5
:10039000F8940F92009729F4C0913601D09137015B
:1003A00001C0EC018E010E5F1F4FC8010E94D40BEB
:1003B0008C899D89892B21F0CE010C960E94D40B4B
:1003C000B80186E891E00E947B0B809141018F5F2C
:1003D00080934101809146018F5F809346010F9089
:1003E0000FBE80913C01882389F080913601909165
:1003F0003701C817D90719F40E94C90E07C00FB6F4
:10040000F8940F920E9475000F900FBEDF91CF916C
:100410001F910F910895AF92BF92CF92DF92EF920A
:10042000FF920F93A12CB12CC12CD12CE12CF12CDB
:1004300000E020E030E045E550E061E371E080E875
:1004400093E00E94C400813081F4F89480933C01D1
:1004500010923F0110923E010F91FF90EF90DF90BC
:10046000CF90BF90AF900C94880E0F91FF90EF90BB
:10047000DF90CF90BF90AF900895F89410923C0118
:100480000C94C80E809138018F5F809338010895D5
:100490000FB6F8940F9220913E0130913F010F90DA
:1004A0000FBEC901089520913E0130913F01C9015D
:1004B0000895809140010895CF92DF92EF92FF92CC
:1004C0000F931F93CF93DF938091380181118DC0DB
:1004D00080913E0190913F01019690933F0180935E
:1004E0003E0100913E0110913F0101151105B9F443
:1004F0008091440190914501209142013091430146
:10050000309345012093440190934301809342012D
:10051000809139018F5F809339010E94750080912D
:100520001C0190911D01D12C0817190720F44EC011
:10053000DD24D39402C089E0C82EE0914401F091FB
:1005400045018081811107C08FEF9FEF90931D01BE
:1005500080931C013BC0E0914401F091450105806E
:10056000F681E02DC681D7812A813B8102171307CE
:1005700028F430931D0120931C0128C07E0182E0E5
:10058000E80EF11CC7010E94D40B2C893D89232B56
:1005900021F0CE010C960E94D40B2E8980913D0152
:1005A000821710F420933D01C29EC0011124B701AF
:1005B000895B9E4F0E947B0BE0913601F0913701E1
:1005C0009E898689981708F0B3CFB7CFE09136019E
:1005D000F0913701E68989E0E89FF0011124E95B99
:1005E000FE4F8081823040F409C080913B018F5FD3
:1005F00080933B01D12C02C0DD24D39480913A0139
:10060000882311F0DD24D3948D2DDF91CF911F919C
:100610000F91FF90EF90DF90CF900895EF92FF92AF
:100620000F931F93CF93DF930FB6F8940F9280919F
:10063000380181508093380180913801882311F06E
:1006400080E055C08091400181112BC0F9CFE0912D
:100650008201F0918301C681D781CE010C960E9460
:10066000D40B8E010E5F1F4FC8010E94D40B8E89E0
:1006700090913D01981710F480933D01F89EC001C0
:100680001124B801895B9E4F0E947B0BE0913601DB
:10069000F09137019E898689981738F0E0923A01E7
:1006A00004C099E0F92EEE24E39480917D0181113C
:1006B000CECF80913B01811111C080913A018130F0
:1006C00009F0BECF11C00E945C028111C0933A01B3
:1006D00080913B01815080933B0101C0C1E080913A
:1006E0003B018111F0CFE9CF0E94C90E81E00F904C
:1006F0000FBEDF91CF911F910F91FF90EF90089562
:1007000028C00E944202C09186010E940E03CC23A1
:1007100001F10FB6F8940F92E0918B01F0918C01EA
:10072000C681D781CE0102960E94D40B80914001F0
:10073000815080934001809141018150809341011B
:100740000F900FBE8F89988D0E94E50DCE010E94FB
:10075000E50D809141018111D4CF80914701823014
:1007600010F00E94C90E0E947400F3CF0F931F93E4
:10077000CF93DF938C01009719F40E94C90E16C025
:100780000E944202C0913E01D0913F01C00FD11F93
:10079000809136019091370102960E94D40BCE01D0
:1007A0000E9490000E940E03882339F3DF91CF91BD
:1007B0001F910F9108950F931F93CF93DF938C0197
:1007C000EB010E94420240913E0150913F01F8012D
:1007D00020813181C20FD31F4217530728F4C2175B
:1007E000D30748F481E004C081E0C217D30720F0AA
:1007F0004C175D0708F080E0F801D183C08388239F
:1008000051F0809136019091370102960E94D40BED
:10081000CE010E9490000E940E03811102C00E942E
:10082000C90EDF91CF911F910F91089580913801EA
:10083000882321F081E080933A01089510923A01D3
:1008400099E005C080913D01815080933D01E09188
:100850003D019E9FF0011124E95BFE4F80818823BA
:1008600089F3E0913D0189E0E89FF0011124E95B03
:10087000FE4FA181B28112960D90BC91A02DB28342
:10088000A183CF010396A817B90731F412968D9171
:100890009C911397928381830180F281E02D868160
:1008A000978190933701809336010895CF93DF931A
:1008B000EB016091360170913701645F7F4F0E94B8
:1008C0009C0B809136019091370102960E94D40BC7
:1008D00080913E0190913F018C0F9D1FDF91CF9140
:1008E0000C949000CF93DF93EA01E0913601F091F0
:1008F00037017068758764876091360170913701A0
:10090000645F7F4F0E947B0B80913601909137018D
:1009100002960E94D40B80913E0190913F018C0F72
:100920009D1FDF91CF910C9490000F931F93CF9355
:10093000DF93DC011596ED91FC911697C681D78166
:100940008E01045F1F4FC8010E94D40B80913801B3
:10095000811115C08E010E5F1F4FC8010E94D40B7C
:100960008E8990913D01981710F480933D01B9E074
:100970008B9FC0011124B801895B9E4F03C0B80151
:100980008DE791E00E947B0BE0913601F0913701F9
:100990009E898689891720F481E080933A0101C0FD
:1009A00080E0DF91CF911F910F9108950F931F93D6
:1009B000CF93DF937068FC0171836083C681D78118
:1009C0000E94D40B8E010E5F1F4FC8010E94D40BF2
:1009D0008E8990913D01981710F480933D01F9E0C4
:1009E0008F9FC0011124B801895B9E4F0E947B0B31
:1009F000E0913601F09137019E898689891720F4AC
:100A000081E080933A0101C080E0DF91CF911F9196
:100A10000F91089520913901FC01208320913E011E
:100A200030913F013283218308950FB6F8940F92DD
:100A300040913E0150913F01F0913901DC01EC9170
:100A400011962D913C911297FE1719F042175307FA
:100A5000A0F4DB01ED91FC91DA01A21BB30BAE1700
:100A6000BF0758F4241B350B2E0F3F1FFB013183AA
:100A700020830E940A0580E001C081E00F900FBE34
:100A8000089581E080933A010895E0913601F09154
:100A9000370184859585E0913601F0913701A09169
:100AA0003601B091370156964C9124E030E0241B7A
:100AB00031093587248708950F931F93CF93C82F4B
:100AC0008B010FB6F8940F92E0913601F091370147
:100AD00041A152A163A174A1452B462B472BD1F410
:100AE000E0913601F091370181E085A301151105F0
:100AF00089F0809136019091370102960E94D40BC3
:100B000080913E0190913F01800F911F0E949000C3
:100B10000E94C90E0F900FBE0FB6F8940F92E0918D
:100B20003601F091370101A112A123A134A10115D1
:100B3000110521053105B1F0E0913601F091370141
:100B4000CC2329F011A212A213A214A20BC081A1DE
:100B500092A1A3A1B4A10197A109B10981A392A374
:100B6000A3A3B4A3E0913601F091370115A20F9031
:100B70000FBEB801C901CF911F910F9108954F92F7
:100B80005F926F927F928F929F92AF92BF92EF92FD
:100B9000FF920F931F93CF93DF9300D000D0CDB778
:100BA000DEB70FB6F8940F92E0913601F09137015D
:100BB000E5A1E230C1F1E0913601F091370141A0A9
:100BC00052A063A074A0DC01CB0180959095A09504
:100BD000B09584219521A621B72181A392A3A3A337
:100BE000B4A3E0913601F091370181E085A3E114CF
:100BF000F104C9F080913601909137010296298362
:100C00003A834B835C830E94D40B80913E01909188
:100C10003F018E0D9F1D0E9490000E94C90E5C81B5
:100C20004B813A8129810F900FBE0FB6F8940F9235
:100C30000115110569F0E0913601F091370181A1AC
:100C400092A1A3A1B4A1F80180839183A283B3836D
:100C5000E0913601F091370185A18130C1F0E0913A
:100C60003601F091370181A092A0A3A0B4A0DA01CF
:100C7000C90180959095A095B09588219921AA21C8
:100C8000BB2181A392A3A3A3B4A381E001C080E010
:100C9000E0913601F091370115A20F900FBE0F9031
:100CA0000F900F900F90DF91CF911F910F91FF90B8
:100CB000EF90BF90AF909F908F907F906F905F90DC
:100CC0004F9008950F931F93CF93DF93EC010FB6CE
:100CD000F8940F923DA182E08DA32230B1F018F478
:100CE000213011F505C02330D9F02430E9F416C0C5
:100CF00089A19AA1ABA1BCA1842B952BA62BB72BC4
:100D000089A39AA3ABA3BCA30FC049A15AA16BA10D
:100D10007CA14F5F5F4F6F4F7F4F02C0323049F170
:100D200049A35AA36BA37CA3313009F020C08E01E4
:100D30000E5F1F4FC8010E94D40B8E8990913D0118
:100D4000981710F480933D0129E0829FC00111247F
:100D5000B801895B9E4F0E947B0BE0913601F091B8
:100D600037019E898689891710F40E94C90E81E097
:100D700001C080E00F900FBEDF91CF911F910F91C6
:100D80000895EF92FF920F931F93CF93DF93EC019F
:100D90003DA182E08DA3223091F018F4213009F5B5
:100DA00005C02330D1F02430E1F415C089A19AA107
:100DB000ABA1BCA1842B952BA62BB72B07C089A177
:100DC0009AA1ABA1BCA10196A11DB11D89A39AA3B3
:100DD000ABA3BCA306C03230C1F149A35AA36BA395
:100DE0007CA3313011F081E031C080913801811154
:100DF00016C07E0122E0E20EF11CC7010E94D40B56
:100E00008E8990913D01981710F480933D01E9E09F
:100E10008E9FC0011124B701895B9E4F05C0BE01A2
:100E2000645F7F4F8DE791E00E947B0BE09136017C
:100E3000F09137019E8986898917A8F60115110559
:100E400091F281E0F801808301C080E0DF91CF91D1
:100E50001F910F91FF90EF900895EF92FF920F93E3
:100E60001F93CF93DF93EC018B018DA192E09DA3A3
:100E700049A15AA16BA17CA14F5F5F4F6F4F7F4F7C
:100E800049A35AA36BA37CA3813079F580913801E3
:100E9000811116C07E0122E0E20EF11CC7010E9402
:100EA000D40B8E8990913D01981710F480933D01E9
:100EB000E9E08E9FC0011124B701895B9E4F05C0F8
:100EC000BE01645F7F4F8DE791E00E947B0BE09154
:100ED0003601F09137019E898689891730F4011512
:100EE000110519F081E0F8018083DF91CF911F9106
:100EF0000F91FF90EF9008951F93CF93DF93EC0134
:100F0000142F4C8D4423D1F150E0111115C08C8168
:100F10009D810E94EB0F2C8D8C819D81820F911DF4
:100F20009D838C832A813B818217930738F18881C6
:100F300099819D838C8322C08E819F810E94EB0FBB
:100F40002C8D30E03195219531098E819F81820F62
:100F5000931F9F838E83688179818617970730F46A
:100F60008A819B81820F931F9F838E83123031F47D
:100F70008A8D882319F08A8D81508A8F8A8D8F5FA0
:100F80008A8F80E0DF91CF911F910895FC01CB0102
:100F9000448D4423A1F026813781240F311D3783EE
:100FA0002683A281B3812A173B0720F0208131815B
:100FB000378326836681778150E00C94EB0F089588
:100FC0000F931F93CF93DF93EC010FB6F8940F921A
:100FD0008C010F5E1F4F0CC08989882361F0C80106
:100FE0000E94950481110E9441058E8D81508E8F43
:100FF0008E8D18168CF38FEF8E8F0F900FBE0FB65D
:10100000F8940F928E01085F1F4F0CC088858823CB
:1010100061F0C8010E94950481110E9441058D8DE7
:1010200081508D8F8D8D18168CF38FEF8D8F0F90D3
:101030000FBEDF91CF911F910F910895CF93DF9352
:10104000EC010FB6F8940F92288139814B8D7C8D7D
:10105000C901479F800D911D11249B838A831A8E9D
:101060003D832C8350E041505109749FC001759F0E
:10107000900D1124820F931F9F838E838FEF8D8F8E
:101080008E8F61110CC08885882389F0CE01089667
:101090000E949504813059F40E94C90E08C0CE0107
:1010A00008960E94690BCE0141960E94690B0F9031
:1010B0000FBE81E0DF91CF910895EF92FF921F93D1
:1010C000CF93DF931F92CDB7DEB7182F662329F099
:1010D000869FC0011124019602C080E090E04F96E7
:1010E00069830E94B30D7C0169810097A9F06111A9
:1010F00004C0FC019183808306C09C01215E3F4FA8
:10110000FC0131832083F701138F648F61E0C701F5
:101110000E941E08C70102C080E090E00F90DF919E
:10112000CF911F91FF90EF900895BF92CF92DF92E1
:10113000EF92FF920F931F93CF93DF9300D000D0D5
:101140001F92CDB7DEB78C016B015D834C83B22E4D
:1011500020E07C0188E0E80EF11C01C021E00FB620
:10116000F8940F92F801928D838D981718F0F2E0A1
:10117000BF1218C04B2DB601C8010E947C07F801B0
:101180009189992349F0C80141960E9495048130C4
:1011900029F40E94C90E02C08111FBCF0F900FBE2F
:1011A00081E04FC08C819D81892B19F40F900FBE77
:1011B00047C0211104C0CE0101960E940A050F907C
:1011C0000FBE0E9442020FB6F8940F92F801858D6F
:1011D0008F3F09F4158EF801868D8F3F09F4168E26
:1011E0000F900FBEBE016C5F7F4FCE0101960E9433
:1011F0001505811120C00FB6F8940F92F801928D59
:101200000F900FBEF801838D98130FC06C817D8104
:10121000C7010E945604C8010E94E0070E940E0305
:1012200081119CCF0E94C90E99CFC8010E94E0078E
:101230000E940E0393CFC8010E94E0070E940E0394
:1012400080E00F900F900F900F900F90DF91CF9153
:101250001F910F91FF90EF90DF90CF90BF90089576
:101260000F931F93CF93DF93EC018A019A8D8B8D9F
:10127000981710F02230E9F4422FCE010E947C072B
:101280008E8D8F3F89F48989811101C010C0CE01F4
:1012900041960E949504882351F00115110539F0FB
:1012A00081E0F801808306C08E8D8F5F8E8F81E094
:1012B00001C080E0DF91CF911F910F910895CF93EE
:1012C000DF93FC01EB01928D838D9817D0F4828D12
:1012D0008F5F828F868D8F3F79F48189811101C064
:1012E0000EC0CF0141960E949504882341F02097BB
:1012F00031F081E0888306C0868D8F5F868F81E024
:1013000001C080E0DF91CF910895BF92CF92DF922C
:10131000EF92FF920F931F93CF93DF9300D000D0F3
:101320001F92CDB7DEB78C016B015D834C83B22E6B
:1013300030E07C0181E1E80EF11C01C031E00FB624
:10134000F8940F92F801828D882339F1E680F780B6
:10135000B601C8010E94C607F801B1100FC0828D06
:101360008150828F80858823A1F0C80108960E9451
:101370009504813071F40E94C90E0BC0F782E68299
:101380008189882331F0C80141960E94950481111A
:10139000F2CF0F900FBE81E04DC08C819D81892BD3
:1013A00019F40F900FBE45C0311104C0CE01019653
:1013B0000E940A050F900FBE0E9442020FB6F894D9
:1013C0000F92F801858D8F3F09F4158EF801868DF7
:1013D0008F3F09F4168E0F900FBEBE016C5F7F4FDA
:1013E000CE0101960E94150581111EC00FB6F8941A
:1013F0000F92F801828D0F900FBE81110FC06C818A
:101400007D81C7010E945604C8010E94E0070E9426
:101410000E03811193CF0E94C90E90CFC8010E9484
:10142000E0070E940E038ACFC8010E94E0070E94D5
:101430000E0380E00F900F900F900F900F90DF91B0
:10144000CF911F910F91FF90EF90DF90CF90BF90C1
:1014500008950F931F93CF93DF93EC018A018A8D38
:101460008823F9F0CE010E94C6078A8D81508A8FA9
:101470008D8D8F3F89F48885811101C010C0CE0108
:1014800008960E949504882351F00115110539F042
:1014900081E0F801808306C08D8D8F5F8D8F81E0A4
:1014A00001C080E0DF91CF911F910F9108950F93BC
:1014B0001F93CF93DF93EC018A8D882349F00E812F
:1014C0001F81CE010E94C6071F830E8381E001C0E9
:1014D00080E0DF91CF911F910F9108950FB6F8949E
:1014E0000F92FC01828D0F900FBE08950FB6F894F5
:1014F0000F92FC01228D0F900FBEFC01838D821B89
:101500000895FC01828D08950C94E50DFC01928DE7
:1015100081E0911180E00895FC01228D81E0938D9E
:10152000291380E00895CF93DF93EC01CA01F8946A
:101530000FB6F8940F923A8D2B8D0F900FBE321389
:101540000DC0009741F0BE01685F7F4F0E946B0C99
:1015500078948CEF1BC0789480E018C07894F8944D
:101560008A8D821788F440E0CE010E947C07898929
:10157000811102C081E009C0CE0141960E948E0D0A
:101580008823C1F38BEF01C080E07894DF91CF9185
:101590000895CF93DF93EC01CB01F8942A8D2111AC
:1015A0000FC04115510549F0BE016F5E7F4FCA0162
:1015B0000E946B0C78948CEF2FC0789480E02CC044
:1015C0007894F8942A8D222329F14C8D2E813F8125
:1015D000240F311D3F832E83EA81FB812E173F07A5
:1015E00020F0288139813F832E832A8D21502A8F34
:1015F0006E817F8150E00E94EB0F8885811102C0CF
:1016000081E009C0CE0108960E948E0D8823C1F3A7
:101610008BEF01C080E07894DF91CF9108951F9304
:10162000CF93DF93EC01142F9A8D8B8D981788F44C
:1016300040E0CE010E947C0711110BC089898823EC
:1016400041F0CE0141960E948E0D11E0811101C042
:1016500010E0812FDF91CF911F9108950F931F9379
:10166000CF93DF93EC01CB018A012A8D222359F11C
:101670004C8D2E813F81240F311D3F832E83EA81C3
:10168000FB812E173F0720F0288139813F832E836D
:101690002A8D21502A8F6E817F8150E00E94EB0FAE
:1016A000F8018081882311F081E00EC088858823AD
:1016B000D9F3CE0108960E948E0D8823A9F381E00C
:1016C000F801808301C080E0DF91CF911F910F91DD
:1016D0000895FC010396928381832FEF3FEF3483BB
:1016E0002383968385839087878310820895FC01E6
:1016F000118610860895CF93DF939C01FB01DC01D6
:101700001196CD91DC911297D383C2838C819D81F8
:10171000958384838C819D81DC0113967C936E93E9
:1017200012977D836C8331872087F90180818F5FD9
:101730008083DF91CF9108950F931F93CF93DF9311
:101740008C01FB01808191818F3F2FEF920721F463
:10175000E801AF81B8850EC0D801139601C0D90148
:1017600012962D913C911397E90148815981841774
:101770009507A8F712968D919C9113979383828376
:10178000EC01FD83EC83B583A4831396FC93EE9365
:10179000129711870087F80180818F5F8083DF9126
:1017A000CF911F910F910895CF93DF93FC01A085F6
:1017B000B1858281938124813581EC013D832C8325
:1017C000C481D5819B838A8311968D919C911297B8
:1017D0008E179F0721F41296DC93CE9311971186F2
:1017E00010868C9181508C93DF91CF910895DF9278
:1017F000EF92FF920F931F93CF93DF937C01D62E2E
:10180000142F8AE190E00E94B30DEC01009709F4D7
:1018100059C080918F0190919001892B21F5D0932F
:101820009001C0938F0182E991E00E94690B8BE9DE
:1018300091E00E94690B84EA91E00E94690B8DEAB5
:1018400091E00E94690B86EB91E00E94690B84EAAB
:1018500091E09093C0018093BF018DEA91E0909355
:10186000C2018093C101DD2011F0DD24D394198ED3
:10187000188EDE8A1F8BFE01E192F1928F01CF015B
:101880000E94770BCE010C960E94770BD987C887F0
:10189000DB8BCA8B82E090E08D1991099D878C8744
:1018A0008E8990919101981710F480939101F9E03D
:1018B0008F9FC0011124B8018E569E4F0E947B0B52
:1018C00081E001C08FEFDF91CF911F910F91FF90C9
:1018D000EF90DF9008950F931F93CF93DF938B01C9
:1018E000C091C301D091C401C80FD91F80918F014D
:1018F0009091900102960E94D40BE0918F01F0919B
:101900009001D383C2838091C3019091C401BF0130
:101910006E5F7F4FC817D90728F48091C10190915D
:10192000C20104C08091BF019091C0010E949C0B34
:101930000115110569F060918F0170919001645F4C
:101940007F4FC801DF91CF911F910F910C949C0B99
:10195000DF91CF911F910F910895FF920F931F93E5
:10196000CF93DF9399E0F92E21C0F894E091BB0169
:10197000F091BC01C681D781CE010C960E94D40B98
:1019800078948E010E5F1F4FC8010E94D40B8E8980
:1019900090919101981710F480939101F89EC001E5
:1019A0001124B8018E569E4F0E947B0B8091B60188
:1019B0008111DBCF0E9448022091C5013091C60100
:1019C000821B930B9093C8018093C70189E0F82E86
:1019D00053C001969093C4018093C30121503109F3
:1019E0003093C8012093C701892B09F03EC0809134
:1019F000BF019091C0012091C1013091C20130938B
:101A0000C0012093BF019093C2018093C1012DC0FA
:101A10000580F681E02DC681D7812091C3013091E8
:101A2000C4018A819B812817390730F1F8948E010F
:101A30000E5F1F4FC8010E94D40B8C899D89892B92
:101A400021F0CE010C960E94D40B78948E8990914F
:101A50009101981710F480939101F89EC001112410
:101A6000B8018E569E4F0E947B0BE091BF01F09112
:101A7000C00180818111CCCF2091C7013091C80174
:101A80008091C3019091C4012115310509F0A1CFC6
:101A90009093C6018093C5018091910129E006C011
:101AA000811103C01092910133C08150289FF00131
:101AB0001124EE56FE4F9081992391F3809391016A
:101AC000A181B28112960D90BC91A02DB283A18309
:101AD000CF010396A817B90731F412968D919C9106
:101AE0001397928381830180F281E02D8681978113
:101AF0009093900180938F01DC01ED91FC911197FF
:101B000057966C91DF91CF911F910F91FF9009949F
:101B1000DF91CF911F910F91FF9008950F931F9325
:101B2000CF93DF93DC011596ED91FC911697C6815A
:101B3000D7818E01045F1F4FC8010E94D40BB801EA
:101B400086EB91E00E947B0BE0918F01F091900178
:101B500081E02E899689291708F480E0DF91CF91E2
:101B60001F910F910895CF93DF93EC010E944202E1
:101B70008091C9019091CA01892B31F48CEC91E0DC
:101B80009093CA018093C9012091A7073091A807BB
:101B9000CE01820F931F8B3D45E0940770F4281708
:101BA000390758F4C091C901D091CA01C20FD31F9F
:101BB0009093A8078093A70702C0C0E0D0E00E94DE
:101BC0000E03CE01DF91CF91089508951092A807DA
:101BD0001092A70708952BED35E08091A70790910B
:101BE000A807281B390BC901089531E1FC01308396
:101BF000319722E22083FC013297A3E3A083FC010A
:101C000033976083FC0134977083FC013597108211
:101C1000FC01369760E86083FC0137971082FC0175
:101C2000389762E06083FC01399763E06083FC01D0
:101C30003A9764E06083FC013B9765E06083FC01B8
:101C40003C9766E06083FC013D9767E06083FC01A0
:101C50003E9768E06083FC013F9769E06083FC0188
:101C6000709760E16083FC0171973083FC0172978B
:101C700032E13083FC01739733E13083FC017497C8
:101C800034E13083FC01759735E13083FC017697B0
:101C900036E13083FC01779737E13083FC01789798
:101CA00038E13083FC01799739E13083FC017A9780
:101CB00030E23083FC017B9731E23083FC017C977A
:101CC0002083FC017D9723E22083FC017E974083E3
:101CD000FC017F975083FC01B09726E22083FC0132
:101CE000B19727E22083FC01B29728E22083FC0110
:101CF000B39729E22083FC01B49720E32083FC0101
:101D0000B59721E320839C0126523109C90108952A
:101D100089EF90E09093890080938800E0E8F0E0FC
:101D200080818C7F80838BE080938100EFE6F0E000
:101D3000808182608083A0913601B0913701CD917E
:101D4000CDBFDD91DEBFFF91EF91DF91CF91BF91CC
:101D5000AF919F918F917F916F915F914F913F9143
:101D60002F911F910F91FF90EF90DF90CF90BF9038
:101D7000AF909F908F907F906F905F904F903F902B
:101D80002F901F900F900FBE0F90089581E008953F
:101D900008950F920FB6F8940F921F9211242F926C
:101DA0003F924F925F926F927F928F929F92AF92EB
:101DB000BF92CF92DF92EF92FF920F931F932F93D8
:101DC0003F934F935F936F937F938F939F93AF93C3
:101DD000BF93CF93DF93EF93FF93A0913601B09120
:101DE00037010DB60D920EB60D920E941604A09109
:101DF0003601B0913701CD91CDBFDD91DEBFFF91AE
:101E0000EF91DF91CF91BF91AF919F918F917F9192
:101E10006F915F914F913F912F911F910F91FF9083
:101E2000EF90DF90CF90BF90AF909F908F907F907A
:101E30006F905F904F903F902F901F900F900FBE2C
:101E40000F9008950F920FB6F8940F921F921124DD
:101E50002F923F924F925F926F927F928F929F92BA
:101E6000AF92BF92CF92DF92EF92FF920F931F93A8
:101E70002F933F934F935F936F937F938F939F9392
:101E8000AF93BF93CF93DF93EF93FF93A09136016E
:101E9000B09137010DB60D920EB60D920E945C0204
:101EA00081110E941604A0913601B0913701CD91A5
:101EB000CDBFDD91DEBFFF91EF91DF91CF91BF915B
:101EC000AF919F918F917F916F915F914F913F91D2
:101ED0002F911F910F91FF90EF90DF90CF90BF90C7
:101EE000AF909F908F907F906F905F904F903F90BA
:101EF0002F901F900F900FBE0F9008950E94220FF9
:101F000018951092C50087E68093C400E0ECF0E0DD
:101F100080818D7F808386E08093C20088E18093FA
:101F2000C1000895CF93C82F8A3019F48DE00E9424
:101F3000920F8091C00085FFFCCFC093C600CF9167
:101F400008958091C00087FFFCCF8091C60008955E
:101F5000AF92BF92CF92DF92EF92FF920F93CF9307
:101F6000DF9300D000D0CDB7DEB7A12CB12CC12CAF
:101F7000D12C83E0E82EF12CEC0EFD1E00E020E0D9
:101F800030E045E550E064E271E08AE690E00E94CE
:101F9000C400EE24E394F12CEC0EFD1E02E020E0E0
:101FA00030E045E550E06AE271E083E590E00E94B0
:101FB000C4000E940B0280E090E00F900F900F9001
:101FC0000F90DF91CF910F91FF90EF90DF90CF9026
:101FD000BF90AF900895FB01DC0102C001900D920B
:101FE00041505040D8F708950F931F93CF93DF933C
:101FF0008C01E091AB07F091AC07838181FF1BC09E
:10200000C0E0D0E005C00995892B11F0CFEFDFEFDC
:10201000F80181918F016091AB077091AC07DB01F2
:102020001896ED91FC9119978111EDCF8AE00995F1
:10203000892B09F402C0CFEFDFEFCE01DF91CF9102
:0A2040001F910F910895F894FFCF4F
:10204A0000000001000000000000A10F00000000D5
:10205A00000200000000920F00000000FFFF686508
:10206A006C6C6F00626C696E6B0073657269616C8F
:06207A000049444C450042
:00000001FF
